:0400000080312A28F9
:1000080080312000111C09280A2826282100111CEB
:100018000E280F28262820001110803195228031C3
:1000280002302F00A5062000F208031D1C282428F2
:10003800101C1F28202824288031E02280312628FF
:100048008031DD2280315821803109006030840000
:1000580000308500103040202100AB308400003093
:1000680085004530402072308400003085000C3017
:10007800402088018A31342A640080010131890BCB
:04008800FC33003411
:1002000000343F3406345B344F3466346D347D340F
:1002100007347F34673477347C3439345E3479344E
:1002200071341F341C341F341E341F341E341F34E9
:100230001F341E341F341E341F344A3461346E346C
:100240004634653462344D34613472344134703430
:1002500072344D34613479344A3475346E344A34EE
:1002600075346C34413475346734533465347034C8
:100270004F34633474344E346F34763444346534DC
:1002800063340034533475346E344D346F346E340B
:1002900054347534653457346534643454346834B4
:1002A00075344634723469345334613474340034F0
:1002B0002000D501911D080091112400951FE43202
:1002C000951311082000D500F30108007808740682
:1002D00003192332740809077407AC3E84008501B2
:1002E0000008F500740809077407AB3E8400850117
:1002F0000008FD00740809077407AD3E84008501FD
:100300000008FB007508840085012400023F92006C
:10031000161403302000F30008002100911108009A
:100320007508840085012400023F92009614033072
:100330002000F30008002400161F0332033082312E
:10034000C12A20006108D7006008D600D736D60C35
:100350005608240091002000601C03320C30F3008A
:1003600008000430F30008002400161F0332033095
:100370008231C12A961420006108D7006008D60097
:100380000630D736D60C890BFC3306305605E00014
:10039000E1010130E0040330F30008007508840037
:1003A00085011200E0000008E10075088400850165
:1003B000043FFA00750884008501033FF90001300D
:1003C0006102003003196002031C12326108D70079
:1003D0006008D6000630D736D60C890BFC33560899
:1003E0000639F038240091000B302000F30008009B
:1003F0006008240091002000601C03320630F300E6
:1004000008000430F30008002400161F04321613FD
:1004100004308231C12A20007A0884008501000856
:10042000240091002000FA0AF90B08006B2A24002E
:10043000161F0432161303308231C12A9615093073
:100440002000F30008002400961509302000F30076
:100450000800240011082000D5007A0884008501D6
:1004600055088000FA0AF903240003190532961290
:1004700007302000F300023296166B222400161675
:10048000080001308231C12A20007308003A0319A4
:100490001D33013A03191A33033A03194133013A60
:1004A00003197C33073A0319AF33013A0319E933CF
:1004B000033A0319BC33013A0319C5330F3A031940
:1004C000E033013A0319C533023A03193433073ACA
:1004D00003194A33FF332000FC0A0530F5077C0876
:1004E0007D06031D0732F40A0730F405FC010530D0
:1004F000F30008000230F30008002000EC01ED01D9
:10050000EE01EF0118083F3980389800981518114E
:1005100018141110210011142000EC01ED01EE015E
:10052000EF010130F000F101080018108030970051
:1005300018140130F0020030F13B71087004031D03
:100540000800EC0A0319ED0A0319EE0A0319EF0A71
:100550000130F000F1010800DC01DD01581C04321B
:100560005A08DC075B08DD3DDA35DB0DD936D80CDF
:1005700059085804031DF2335D08D9005C08D800FF
:1005800008002000D800240016152000FB080319DD
:1005900005327B088400850158088000F3010800BB
:1005A0002000D000D1014F085018D107CF35D036E8
:1005B000D008031DF833510808002F0091170800D8
:0605C0002F00911308005A
:10102E00BC00840085011200BD001200BE0012003B
:10103E00BF000008C0003C30C800C901CA01CB0186
:10104E004008C7003F08C6003E08C5003D08C40062
:10105E005121200045082100DF0020004408210016
:10106E00DE003C302000C800C901CA01CB01400897
:10107E00C7003F08C6003E08C5003D08C400AA21AF
:10108E004708C0004608BF004508BE004408BD0022
:10109E003C30C800C901CA01CB014008C7003F0857
:1010AE00C6003E08C5003D08C40051212000450879
:1010BE002100E100200044082100E0003C30200027
:1010CE00C800C901CA01CB014008C7003F08C600CD
:1010DE003E08C5003D08C400AA214708C0004608C6
:1010EE00BF004508BE004408BD001830C800C90145
:1010FE00CA01CB014008C7003F08C6003E08C50024
:10110E003D08C4005121200045082100E3002000C5
:10111E0044082100E20018302000C800C901CA01AD
:10112E00CB014008C7003F08C6003E08C5003D0879
:10113E00C400AA21200045082100E5002000440833
:10114E002100E40007302000C600C701210064081A
:10115E00043E2000C40000302100653D2000C50083
:10116E007624200045082100EB00200044082100D1
:10117E00EA004630E800E9010C322821200044083C
:10118E002100E402200045082100E53BE80A03198E
:10119E00E90A210069082000C50021006808200026
:1011AE00C400282121006508803A2000C1004508AE
:1011BE00803A4102031D03324408210064022100DB
:1011CE0069082000C500210068082000C40003182B
:1011DE00D43328214408BD000230BD052100650826
:1011EE00ED006408EC00E601E70121006608113EFF
:1011FE0081310A00893120003D04BE00C100C201C8
:10120E0021006508803A2000C3004208803A43025C
:10121E00031D03324108210064022000031C0C321E
:10122E0020003E082100E402031CE503E60A031930
:10123E00E70A2000BD36D9332100E40A0319E50A76
:10124E00DE3444080339031D1B326430C800C90163
:10125E004508C7004408C600182247084604031D67
:10126E0014329030C8000130C90044082C3EC6002C
:10127E000130453DC70018224708460403190532C0
:10128E006D30C4000130C50008006E30C40001305E
:10129E00C5000800CC01C71F0D32C409C509C60917
:1012AE00C709C40A0319C50A0319C60A0319C70ACE
:1012BE00CC01CC0ACB1F0B32C809C909CA09CB090C
:1012CE00C80A0319C90A0319CA0A0319CB0A4B081B
:1012DE004A044904480403192732CD01CD0ACB1B19
:1012EE000532C835C90DCA0DCB0DF8334B08470270
:1012FE00031D0A324A084602031D063249084502FA
:10130E00031D023248084402031C08324808C40276
:10131E004908C53B4A08C63B4B08C73BCB36CA0CEF
:10132E00C90CC80CCD0BE233CC0803190800C40954
:10133E00C509C609C709C40A0319C50A0319C60A8D
:10134E000319C70A0800CC01CB1F0D32C809C90901
:10135E00CA09CB09C80A0319C90A0319CA0A03190B
:10136E00CB0ACC01CC0AC71F0D32C409C509C60968
:10137E00C709C40A0319C50A0319C60A0319C70AFD
:10138E000130CC06CE01CF01D001D1014B084A0469
:10139E004904480403192E32CD01CD0ACB1B053268
:1013AE00C835C90DCA0DCB0DF833CE35CF0DD00DC6
:1013BE00D10D4B084702031D0A324A084602031D8F
:1013CE00063249084502031D023248084402031C36
:1013DE000B324808C4024908C53B4A08C63B4B08B5
:1013EE00C73B0130CE040030CB36CA0CC90CC80C3A
:1013FE00CD0BDB33CC0803190B32CE09CF09D00944
:10140E00D109CE0A0319CF0A0319D00A0319D10A3A
:10141E005108C7005008C6004F08C5004E08C4004A
:10142E0008004908480403190800CA01CA0AC91B62
:10143E000332C835C90DFA3349084702031D02327B
:10144E0048084602031C04324808C6024908C73B36
:10145E00C936C80CCA0BF033080021009512951539
:10146E002000F20121007830990420008E018F01B6
:10147E00900121000E111010901010118F120F13E9
:10148E0023008C148C158D158D1480317D2288319E
:10149E00D127E02622260B178B17F62588312F0031
:1014AE002216251628162B16A214A514A814AB1452
:1014BE002814251422142A162716241621162A1546
:1014CE00271524152115A016A316A616A916201643
:1014DE002316261629162015231526152915A014B0
:1014EE00A314A614A91420142314261429142000BE
:1014FE0095010B11B225A000A532A208031DC4321E
:10150E0000305A2325083C02AD0026083D3BAE00B4
:10151E0027083E3BAF0028083F3BB000803AB100A1
:10152E0080303102031D0A3200302F02031D0632B5
:10153E0000302E02031D023202302D02031CA43293
:10154E00A101A10A852388313308A4003208A30023
:10155E0000305A233F08AC003E08AB003D08AA00FD
:10156E003C08A9002408803AAD0083302D02031DEB
:10157E00023201302302031C2832A90A0319AA0AD7
:10158E000319AB0A0319AC0A2C08803AAD0080305F
:10159E002D02031D0A3200302B02031D06320030CD
:1015AE002A02031D023201302902031C6D32013062
:1015BE002907B20000302A3DB30000302B3DB400A5
:1015CE0000302C3DB5009F255F322408803AAD00D7
:1015DE0080302D02031D0232FF30230203185432D5
:1015EE00FF30A907AA3DAB3DAC3DAC1B4D322C08DC
:1015FE00B5002B08B4002A08B3002908B2009F25B5
:10160E00433200305A233F08A8003E08A7003D0889
:10161E00A6003C08A5003832A10803190A32A10120
:10162E003332A201A20A30320230A2002D32A201C0
:10163E002B322208003A0319F433013A0319F4331A
:10164E00033AF5332008003A03191E32013A031902
:10165E005433033A0319D533013A0319DD331432E7
:10166E00DF231E32E92688313308B3003208B20078
:10167E004B2688311532852388313308B300320862
:10168E00B200E62588310C3220002208003A0319F8
:10169E00E733013A0319E633033A0319EC33A20197
:1016AE000B192533FD33C00000308B1B0130C100F8
:1016BE008B176F08C5006E08C4006D08C3006C0858
:1016CE00C200411C02328B1701328B132000C0085E
:1016DE0003190B324008840085014208803F4308FD
:1016EE00813F4408823F4508833F4508BF004408B8
:1016FE00BE004308BD004208BC0008000830FD25AE
:10170E003608E4073708E53D2030BE00BF01650806
:10171E00BD006408BC009E233D08B5003C08B40023
:10172E00E4023508E53BB3003408B2000800C001FE
:10173E00BF1F0732BE09BF09BE0A0319BF0AC00187
:10174E00C00ABD1F0732BC09BD09BC0A0319BD0A78
:10175E000130C006C201C3013F083E0403191B320B
:10176E00C101C10ABF1B0332BE35BF0DFA33C235EC
:10177E00C30D3F083D02031D02323E083C02031C0E
:10178E0006323E08BC023F08BD3B0130C204BF36E4
:10179E00BE0CC10BEC33C00803190532C209C309D4
:1017AE00C20A0319C30A4308BD004208BC00080060
:1017BE0035305A23353017202000B2000A30C600CB
:1017CE00C7013208023E840085011200C4000008E1
:1017DE00C500762433084406F0394406B3000A30B7
:1017EE00BE00BF013208023E840085011200BC001B
:1017FE000008BD009E233C08B900B90E3308390617
:10180E000F393906B3003208043E84008501003FCB
:10181E00B900013FBA00803ABB0080303B02031D85
:10182E0002320C303902031C0D323208043E8400A1
:10183E008501F43080070131FF30803D3F312F00AC
:10184E00261402322F00261020003208043E840097
:10185E008501003FB900013FBA003904031D07326C
:10186E003208043E840085010C301A0080010A30D3
:10187E00C600C7013208043E840085011200C40070
:10188E000008C500762434084406F0394406B40036
:10189E000A30BE00BF013208043E840085011200EA
:1018AE00BC000008BD009E233C08B900B90E3408E8
:1018BE0039060F393906B400BD003308BC00AB241D
:1018CE002000351C03322F00291602322F00291258
:1018DE002A11A2102212251228122B160800C80156
:1018EE00C51F0732C409C509C40A0319C50AC801B0
:1018FE00C80AC71F0532C609C709C60A0319C70A8F
:10190E004708460403191732C901C90AC71B033217
:10191E00C635C70DFA3347084502031D0232460885
:10192E004402031C04324608C4024708C53BC736AE
:10193E00C60CC90BF033C80803190800C409C50941
:10194E00C40A0319C50A08002F00121E0800200041
:10195E003C080F39013E81310A008C31BE003E1C1D
:10196E0002322F00211620003E1802322F002112C3
:10197E002000BE1C02322F0022142000BE1802329C
:10198E002F00221020003E1D02322F0028142000AE
:10199E003E1902322F0028102000BE1D02322F00E9
:1019AE002A162000BE1902322F002A1220003E1ED7
:1019BE0002322F00271620003E1A02322F00271265
:1019CE002000BE1E02322F0024162000BE1A023244
:1019DE002F00241220003E1F02322F00251420005B
:1019EE003E1B02322F00251020003C0E0F39013E07
:1019FE0081310A008D31BE003E1C02322F00A0162E
:101A0E0020003E1802322F00A0122000BE1C02320F
:101A1E002F0021152000BE1802322F0021112000A8
:101A2E003E1D02322F00271520003E1902322F00D4
:101A3E0027112000BE1D02322F00A9162000BE194C
:101A4E0002322F00A91220003E1E02322F00A616CF
:101A5E0020003E1A02322F00A6122000BE1E0232B5
:101A6E002F00A3162000BE1A02322F00A312200050
:101A7E003E1F02322F00241520003E1B02322F0083
:101A8E00241120003D080F39013E81310A008D31AD
:101A9E00BE003E1C02322F00201520003E180232DE
:101AAE002F0020112000BE1C02322F002016200015
:101ABE00BE1802322F00201220003E1D02322F00CF
:101ACE00261620003E1902322F0026122000BE1DBF
:101ADE0002322F0029152000BE1902322F002911C3
:101AEE0020003E1E02322F00261520003E1A023222
:101AFE002F0026112000BE1E02322F0023152000BB
:101B0E00BE1A02322F00231120003E1F02322F0078
:101B1E00231620003E1B02322F00231220003D0E02
:101B2E000F392F0003190232A6140800A610080060
:101B3E0000308B1B0130B6008B173508EF003408D0
:101B4E00EE003308ED003208EC00361C02328B1723
:101B5E0008008B130800D325B200B208031D05320E
:101B6E00F608031D0232B30113327608003A003034
:101B7E0003190130320503190232023008323208DD
:101B8E00760503190332B301B30A02320330B300F0
:101B9E003208F600330808000F1D0232F701093231
:101BAE007708803A763E03180232F70A02320A307C
:101BBE00F70077080A3A003003190130080033089D
:101BCE00B7003208B6007E26883129122A11A210DB
:101BDE00A5142212251228122B1226100800B2016B
:101BEE006030B2043208B30001308C2FB8002100EF
:101BFE001D141E111E109E109E1720003808B900CD
:101C0E002000B90DB90D21001D08200039068339B9
:101C1E00390621009D0000000000000000009D1408
:101C2E009D18FE331D101C082000B70021001B0854
:101C3E002000B60008002000F301F801F401F801BD
:101C4E00F401FC0122008E110E1221008E150E16CB
:101C5E00093221008E110000000000008E150000D8
:101C6E000000000020000E1EF43321000E120000B2
:101C7E00000000000E1624009501940196013830E4
:101C8E0095002000911108003208E8073308E93D5D
:101C9E001030BE00BF016908BD006808BC009E235D
:101CAE003D08B5003C08B400E8023508E93BFF30BA
:101CBE00EA07031CEB036A0A03196B0A031D0732BA
:101CCE006430EA00EB013508E3003408E2006308F3
:101CDE00B7006208B6007E26883129122A15A21096
:101CEE00A5102216251228122B12261008000A30D3
:101CFE00C600C7013708C5003608C4007624380868
:101D0E004406F0394406B8000A30BE00BF01370859
:101D1E00BD003608BC009E233D08B7003C08B60047
:101D2E000A30C600C7013708C5003608C40076243D
:101D3E004408BA00BA0E38083A060F393A06B80007
:101D4E000A30BE00BF013708BD003608BC009E2316
:101D5E003D08B7003C08B6000A30C600C701370878
:101D6E00C5003608C400762439084406F039440606
:101D7E00B9000A30BE00BF013708BD003608BC00EE
:101D8E009E233D08B7003C08B6000A30C600C701C6
:101D9E003708C5003608C40076244408BA00BA0EC7
:101DAE0039083A060F393A06B900BD003808BC00AA
:101DBE00AB2C21000F1523000F1121000D15230050
:101DCE000D1508000030122788310430B736B60CD6
:101DDE00890BFC333608B4003708B5000A30D10041
:101DEE00D2013508D0003408CF00BC275008B5000A
:101DFE004F08B4001030BE00BF013508BD003408D6
:101E0E00BC009E233D08B5003C08B4003508B30065
:101E1E003408B2000800B800B9000330B905153017
:101E2E00C2003930C100C001C00A4830BE00BF0137
:101E3E00A7271530C2003A30C1000230C00048302A
:101E4E00BE00BF0133273A08BD00BC013B083C046D
:101E5E00B6003D08B70008003E35C4003F0DC50072
:101E6E000130C4044008C7004208C6004108C8003B
:101E7E004330CA004430C90001304A272000C3084D
:101E8E00031D0800FB33CB0000308B1B0130CD004F
:101E9E00780ACE000730CE058B177408CC004D1C87
:101EAE0002328B1701328B1320004E084C068B1713
:101EBE000319F3334A088400850180017808090765
:101ECE007807AB3E840085014B088000780809072F
:101EDE007807AC3E84008501490880007808090720
:101EEE007807AD3E840085014A0880004E08F80050
:101EFE0021009119033291152000911520004D1CDF
:101F0E0002328B1708008B130800B4003308B5009B
:101F1E003408B6000330B6051530C2003630C100A5
:101F2E00C001C00A4830BE00BF01A7271530C2004D
:101F3E003530C100C001C00A4830BE00BF01A72F16
:101F4E003E35C4003F0DC5004008C7004208C6001C
:101F5E004108C8004330CA004430C90001304A2746
:101F6E002000C308031D0800FB33D301D4014F1C0E
:101F7E0004325108D3075208D43DD135D20DD03694
:101F8E00CF0C50084F04031DF2335408D0005308F1
:101F9E00CF0008002F0092019217F030920520001A
:101FAE00981537302F0098001430990013309A008E
:101FBE009101111391121108F33904389100033075
:101FCE009104A001A101A201A301A401A501A601F2
:101FDE00A701A801A901AA01AB01200012113030FE
:101FEE002F009500930193171313931294019117D9
:021FFE000800D9
:020000040001F9
:04000E00E43FFF1FAD
:00000001FF
