:0600000000308A000C280C
:10000800FF000308FA000A08FB000A128A115B2E97
:10001800E501E601E701E801E901EA01EB01EC018C
:10002800ED01EE01EF010A128A11A42A03179001CB
:10003800910192019301940195019601970198010C
:1000480099019A019B010800F400232A83120317DF
:100058001B129B11951118121512121292116F286A
:10006800151612160800181695151B161216921555
:100078000800181615161B161216921508001516E4
:1000880012161B169B150800181615161B169B151D
:10009800921508001B161516181695159B1592151E
:1000A800080015161216921508001B169B159515B3
:1000B800181615161216921508001B169B151816F9
:1000C80015161216921508009B1595151816151673
:1000D8001216921508007308003A03196828013AA5
:1000E80003193428033A03193728013A03193D281C
:1000F800073A03194328013A03194828033A031910
:100108004E28013A031955280F3A03195928013A7C
:10011800031D08006128831203171B139B129512F5
:100128009812151312139212D428151712170800D3
:10013800981695161B171217921608009816151779
:100148001B17121792160800151712171B179B1664
:100158000800981615171B179B16921608001B17F0
:100168001517981695169B1692160800151712174C
:10017800921608001B179B16951698161517121736
:10018800921608001B179B16981615171217921629
:1001980008009B1695169816151712179216080040
:1001A8007308003A0319CD28013A03199928033A2C
:1001B80003199C28013A0319A228073A0319A82809
:1001C800013A0319AD28033A0319B328013A031970
:1001D800BA280F3A0319BE28013A031D0800C62899
:1001E8008312031719139B139513981313131013E2
:1001F800921339291317101708009817951719170C
:100208001017921708009817131719171017921735
:1002180008001317101719179B17080098171317BA
:1002280019179B179217080019171317981795177E
:100238009B17921708001317101792170800191721
:100248009B17951798171317101792170800191767
:100258009B17981713171017921708009B179517D5
:10026800981713171017921708007308003A031904
:100278003229013A0319FE28033A03190129013AE0
:1002880003190729073A03190D29013A03191229F5
:10029800033A03191829013A03191F290F3A0319B8
:1002A8002329013A031D08002B2983120317191269
:1002B8009912931296121312101290129E29131665
:1002C80010160800961693161916101690160800A0
:1002D80096161316191610169016080013161016EF
:1002E80019169916080096161316191699169016C7
:1002F80008001916131696169316991690160800E4
:1003080013161016901608001916991693169616B5
:100318001316101690160800191699169616131625
:10032800101690160800991693169616131610169E
:10033800901608007308003A03199729013A03191F
:100348006329033A03196629013A03196C29073A04
:1003580003197229013A03197729033A03197D29E8
:10036800013A031984290F3A03198829013A031D10
:1003780008009029831203171911991193119611E6
:10038800131110119011032A131510150800961552
:1003980093151915101590150800961513151915AC
:1003A8001015901508001315101519159915080042
:1003B8009615131519159915901508001915131583
:1003C8009615931599159015080013151015901585
:1003D80008001915991593159615131510159015EC
:1003E800080019159915961513151015901508007C
:1003F800991593159615131510159015080073087F
:10040800003A0319FC29013A0319C829033A0319C8
:10041800CB29013A0319D129073A0319D729013AF7
:100428000319DC29033A0319E229013A0319E929D6
:100438000F3A0319ED29013A031D0800F52974083C
:10044800013A03192A28033A03198F28013A031994
:10045800F428073A03195929013A031D0800BE294F
:10046800F000EC01EE013B2AF630F007EC0A0A3006
:1004780070020318382A7008EE0008007D0834223C
:100488000A307D02031C4A2A6C084B2A0A30F30002
:1004980001302820831203136E08F300023028204D
:1004A800831203136D0834226C08F30003302820EC
:1004B800831203136E08F3000430282803178801F9
:1004C8007E309C008C309D009E019E03D3308700B7
:1004D8009001910192019301940195019601970170
:1004E800980199019A019B010F300313900083161C
:1004F80011149114813083129F0083161F169F16C2
:100508001F138312EB01ED010C30FD00A001A00ABE
:10051800031718178316031306108617061785176F
:1005280005178312061483161617961783120C10D4
:1005380083160C1483120B108B150B178B170800DE
:100548006222200BE02A03171815181703136F1CD3
:10055800B32A42220A128A11831203136F10650B01
:10056800BA2A0230A000E5011A20E5250313660B1C
:10057800A52AED0A6D083C3A031DCA2AED01FD0AB9
:100588000D307D02031CCA2AFD01FD0AE6016F1425
:10059800E525A52A031715151F260A128A11031324
:1005A800650BDB2A0330A000E5011A20E5250313BB
:1005B800660BE02AE601E5252008023A031DF72A22
:1005C800CE2A03171B15F3250A128A110313650B8C
:1005D800F22AA001A00AE5011A20E5250313660BFB
:1005E800F72AE601E5252008033A031DA52AE52A8E
:1005F800F801F901760875040319212BF701F70AA8
:100608000310F61B0B2BF50DF60D032B0310F80D3D
:10061800F90D76087402031D132B75087302031C69
:100628001D2B7508F3027608031CF403F4027814F2
:100638000310F60CF50CF70B0A2B7908F400780870
:10064800F3000800E830F5000330F6007108F40004
:100658007008F300FC227308F200F300023028202F
:100668001830F500FC30F6007208F300F401CC25D0
:100678007308F0070318F10A7408F1076430F500ED
:10068800F6017108F4007008F300FC227308F20008
:10069800F300033028209C30F500FF30F600720884
:1006A800F300F401CC257308F0070318F10A740865
:1006B800F1070A30F500F6017108F4007008F3003C
:1006C800FC227308F200F30004302820F630F5000D
:1006D800FF30F6007208F300F401CC257308F00728
:1006E8000318F10A7408F1077008F3000530282888
:1006F8006430F500F6017108F4007008F300FC227C
:100708007308F200F300033028209C30F500FF3016
:10071800F6007208F300F401CC257308F0070318FB
:10072800F10A7408F1070A30F500F6017108F400BF
:100738007008F300FC227308F200F300043028204C
:10074800F630F500FF30F6007208F300F401CC250E
:100758007308F0070318F10A7408F1077008F3002A
:100768000530282083120317161696140800F00087
:100778008B2D0317171114111A11111191119A11B8
:1007880094119711971394139A13911312101B1025
:1007980015101810981095109B1092100800031748
:1007A8009214171114111A11111191119A1194110F
:1007B8009711971394139A13911312101B10151075
:1007C8001810981095109B10080003179B1492148A
:1007D800171114111A11111191119A1194119711DD
:1007E800971394139A13911312101B1015101810C5
:1007F800981095100800031795149B14921417115C
:1008080014111A11111191119A119411971197132A
:1008180094139A13911312101B1015101810981096
:1008280008000317981495149B14921417111411A7
:100838001A11111191119A11941197119713941378
:100848009A13911312101B10151018100800031793
:100858001814981495149B149214171114111A1142
:10086800111191119A1194119711971394139A13C6
:10087800911312101B1015100800031715141814E3
:10088800981495149B149214171114111A1111111C
:1008980091119A1194119711971394139A13911314
:1008A80012101B10080003171B14151418149814A1
:1008B80095149B149214171114111A1111119111F6
:1008C8009A1194119711971394139A139113121064
:1008D8000800031712141B141514181498149514EF
:1008E8009B149214171114111A11111191119A11C4
:1008F80094119711971394139A13911308000317DF
:10090800911712141B1415141814981495149B1489
:100918009214171114111A11111191119A1194119D
:100928009711971394139A13080003179A1791179E
:1009380012141B1415141814981495149B1492145B
:10094800171114111A11111191119A11941197116B
:10095800971394130800031794179A1791171214F2
:100968001B1415141814981495149B149214171129
:1009780014111A11111191119A11941197119713B9
:1009880008000317971794179A17911712141B1436
:1009980015141814981495149B1492141711141103
:1009A8001A11111191119A11941197110800031736
:1009B8009715971794179A17911712141B14151453
:1009C8001814981495149B149214171114111A11D1
:1009D800111191119A119411080003179415971584
:1009E800971794179A17911712141B1415141814A3
:1009F800981495149B149214171114111A111111AB
:100A080091119A11080003179A15941597159717BD
:100A180094179A17911712141B1415141814981474
:100A280095149B149214171114111A111111911184
:100A38000800031791159A15941597159717941789
:100A48009A17911712141B14151418149814951446
:100A58009B149214171114111A111111080003177D
:100A6800111591159A1594159715971794179A17A4
:100A7800911712141B1415141814981495149B1418
:100A88009214171114111A11080003171A151115C9
:100A980091159A1594159715971794179A179117F2
:100AA80012141B1415141814981495149B149214EA
:100AB800171114110800031714151A15111591159B
:100AC8009A1594159715971794179A179117121442
:100AD8001B1415141814981495149B1492141711B8
:100AE80008000317171514151A15111591159A15DD
:100AF80094159715971794179A17911712141B1492
:100B080015141814981495149B149214080070085E
:100B1800003A0319BD2B013A0319D32B033A0319E1
:100B2800E92B013A0319FF2B073A0319152C013A4F
:100B380003192B2C033A0319412C013A0319572C9A
:100B48000F3A03196D2C013A0319832C033A031940
:100B5800992C013A0319AF2C073A0319C52C013A0D
:100B68000319DB2C033A0319F12C013A0319072D59
:100B78001F3A03191D2D013A0319332D033A03199E
:100B8800492D013A03195F2D073A031D0800752DF9
:100B9800F701F801731CD62D7508F7070318F80A32
:100BA8007608F8070310F50DF60D0310F40CF30C96
:100BB80074087304031DCE2D7808F4007708F30039
:100BC80008008030F0003E30F1000130F002031CD4
:100BD800F103700A0319710A03190800E92D0313B8
:100BE8001F15E525E5259F149F18F82D83168312F8
:100BF8001E08E80083161E088312E7002430F5005B
:100C0800F6016708D13EF30068080318013EFE3E6E
:100C1800F400CC257408F4007308F3000A30F500DA
:100C2800F601FC227408E8007308E7006808F10080
:100C38006708F0007C2B03131F11E5259F149F18EC
:100C4800232E831683121E08EA0083161E088312B9
:100C5800E9001E30F500F6016A08F4006908F3009F
:100C6800CC257408EA007308E9000A30F500F6019B
:100C78006A08F4006908F300FC227408EA007308A3
:100C8800E9006A08F1006908F00026230A128A11AF
:100C98009630F500F601831203136A08F400690818
:100CA800F300FC227408EA007308E900BB2B8312E6
:100CB80003130C1C7A2E83160C1C7A2E83126F14C5
:100CC8000C1080308F00EB0A3D306B02031C7A2E2B
:100CD800ED0AEB013D306D02031C7A2EFD0AED0191
:100CE8000D307D02031C7A2EFD01FD0A83120B18BC
:100CF8008B1D892EE501E601061B842EE501E50A18
:100D0800861B882EE601E60A0B107B088A007A0803
:080D18008300FF0E7F0E0900AD
:02400E00D430AC
:00000001FF
