:020000040000FA
:060000008EEF0EF012006D
:020006000000F8
:06000800A0EF01F0120060
:02000E00400EA2
:10001000D36E600E9B6E0001210E786F00017C6B29
:1000200000017D6B9390F286F28EF28CB6EC0CF0B0
:100030008A90ECEC0CF0CEEC0DF05DEC0DF06B88E2
:10004000BB8AD18E03000001010E836F0001010EF7
:10005000826F000182051CE1110EE66ED3EC05F003
:10006000E5520E0EE66E97EC06F0E552150EE66EC2
:100070005BEC07F0E552150EE66E1FEC08F0E5525A
:10008000E66AE3EC08F0E5520001010E816FE1D76A
:100090005DEC0DF0800ECF6ECD8CCD98CD86CD84ED
:1000A000CD82CD809D900001810528E10C0EC16EAE
:1000B0000001010E836F0001010E826F74846B8852
:1000C000BB8A8A809280C29AC298C296C294BF0E9E
:1000D000C06EC280000182050AE19E9C9D8CC28296
:1000E000030072C076F073C077F053DAF3D70001E3
:1000F000020E816F5DEC0DF0C290D5D7020E0001AB
:10010000815D5FE10001010E836F0001010E826FCE
:100110006E846B88BB8A9284C29AC298C286C2944B
:10012000BF0EC06EC2800001040E616F0001010E9F
:100130007E6F0001020E806F000182053AE100012E
:10014000766B776B0001606B000161510001605DAF
:100150000FE29E9C9D8CC28203000001745100013D
:10016000762700017551000177230001602BECD741
:1001700000016151146E156A14C00DF015C00EF027
:1001800076C008F077C009F078EC0EF008C076F081
:1001900009C077F000017E0504E100017E6B0001DB
:1001A000802B030E0001805D03E10001806B1CD9F0
:1001B000C3D70001030E816F5DEC0DF0C2908A90F1
:1001C0009DD7030E0001815D30E10001010E836FB8
:1001D0000001010E826F7A846B88BB8A9D800001CA
:1001E0007A6B00017B6B0001796B0001820516E1DF
:1001F00071EC05F0030080BE10D080BE0ED0FFEC85
:100200000DF080BC03D000017A2B04D080BE02D058
:1002100000017B2B71EC05F0F0D7E7D70001040E4D
:10022000816F5DEC0DF09D90CCD7040E0001815DD7
:1002300001E084D0D39C0001010E836F0001010E08
:10024000826F74866B88BB8A140EE66EF3EC0BF03B
:10025000E5527A866E8674886E887A887A8A6E8A83
:100260000A0EE66E5BEC07F0E552050EE66E1FEC3B
:1002700008F0E552788E0001896B00018995D25013
:10028000200B01E0898500018993D250100B01E019
:10029000898300018991D250080B01E08981000116
:1002A000820545E1F3EC0DF080BC07D0070E00019C
:1002B000895D02E20001892B08D080BE06D00001D2
:1002C0008951000802E200018907000100018951FB
:1002D000040B02E0D28A01D0D29A000100018951B8
:1002E000020B02E0D28801D0D298000100018951AE
:1002F000010B02E0D28601D0D29600018951040B95
:1003000001E0010EE66EA7EC09F0E552000189510B
:10031000020B01E0010EE66E6BEC0AF0E552000103
:100320008951010BE66E2FEC0BF0E552B8D70001B6
:10033000010E816F5DEC0DF0D38C77D7B4D612002F
:10034000DACFE4FFE2CFDAFFE6529EA017D09E900C
:100350000001792B79513B0802E2796B7A2B7A51B3
:100360003B0802E27A6B7B2B7B51170801E27B6B27
:10037000800ECF6E7D1D7D6F010E7E6F9EAC20D0F6
:100380009E9C3C0EC2140001626F62510BE1C4508E
:10039000186E18C019F0186AC3501824726F000E36
:1003A0001920736F080E625D0BE1C450186E18C0FF
:1003B00019F0186AC3501824746F000E1920756F55
:1003C000F2A008D0F29081CF88F0000188BF826B44
:1003D00088BD836BA1A204D0A1920001010E7F6FA2
:1003E000E552E5CFDAFF110000017D512DE176C025
:1003F00014F077C015F0880E145E010E155A020E27
:10040000086E096A14C00DF015C00EF05AEC0EF01B
:1004100006C063F007C064F063C0E6FF64C0E6FF97
:1004200018D9E552E55207C065F008C066F009C06A
:1004300067F065C0E6FF66C0E6FF67C0E6FF31D83B
:10044000E552E552E5522CD076C014F077C015F095
:100450002F0E145E010E155A240E086E096A14C080
:100460000DF015C00EF05AEC0EF006C063F007C098
:1004700064F063C0E6FF64C0E6FFEBD8E552E552E6
:1004800007C065F008C066F009C067F065C0E6FF08
:1004900066C0E6FF67C0E6FF3BD8E552E552E5528D
:1004A0001200D9CFE6FFE1CFD9FFFC0EDBCF6FF012
:1004B000FD0EDBCF70F0FE0EDBCF71F0E668E3ECF3
:1004C00008F0E552000170510F0BE66EA7EC09F041
:1004D000E55200016F51F00BE842E842E842E84281
:1004E000E66E6BEC0AF0E55200016F510F0BE66E01
:1004F0002FEC0BF0E552BB866C8C729C00017051A6
:100500000F0BE66EA1DAE552E552E7CFD9FF1200F4
:10051000D9CFE6FFE1CFD9FFFC0EDBCF6FF0FD0EA8
:10052000DBCF70F0FE0EDBCF71F0000171510F0BCD
:10053000000905E1E668E3EC08F0E55206D07151E8
:100540000F0BE66EE3EC08F0E55200017051F00B82
:10055000E842E842E842E842E66EA7EC09F0E552DC
:10056000000170510F0BE66E6BEC0AF0E5520001D2
:100570006F51F00BE842E842E842E842E66E2FECA9
:100580000BF0E552BB86728C6C9CE552E7CFD9FF2D
:10059000120000017851146E156A72C008F073C021
:1005A00009F014C00DF015C00EF05AEC0EF006C0A4
:1005B00063F007C064F063C0E6FF64C0E6FF49D89B
:1005C000E552E55207C065F008C066F009C067F063
:1005D00065C0E6FF66C0E6FF67C0E6FF16D8E552D5
:1005E000E552E552320E146E156A72C008F073C0FF
:1005F00009F014C00DF015C00EF078EC0EF00850A4
:10060000E66EF3EC0BF0E5521200D9CFE6FFE1CF36
:10061000D9FFFC0EDBCF6FF0FD0EDBCF70F0FE0ECE
:10062000DBCF71F0000171510F0BE66E1FEC08F08B
:10063000E55200017051F00BE842E842E842E8421E
:10064000E66EE3EC08F0E5527382E552E7CFD9FF9E
:100650001200D9CFE6FFE1CFD9FF030EE126DF6A12
:10066000010EDB6A020EDB6A0001606B100E605D3A
:1006700060E2010E176ED9CFE9FFDACFEAFF17501B
:100680001F0BEECF14F0EECF15F0EECF16F006E014
:10069000D890143615361636E806FAE114C0DFFF96
:1006A000010E15C0DBFF020E16C0DBFFFD0EDBCF17
:1006B00014F0FE0EDBCF15F0166AD8901650000A23
:1006C00006E6000E145C800E1558000E165808E35E
:1006D000D9CFE9FFDACFEAFFEE2A000EEE22EE22B2
:1006E0000F0E0001605D13E2DECFE6FFDECFE6FF16
:1006F000DDCFE6FFDD5236D8E552E552E55207C0C0
:10070000DFFF010E08C0DBFF020E09C0DBFFFD0E9C
:10071000DBCF14F0FE0EDBCF15F0D8901436153673
:10072000FD0E14C0DBFFFE0E15C0DBFF0001602BC9
:100730009DD7DFCF14F0010EDBCF15F0020EDBCF1B
:1007400016F014C007F015C008F016C009F0030E2B
:10075000E15C03E200D0E16AE552E16EE552E7CFE9
:10076000D9FF1200D9CFE6FFE1CFD9FF030EE12672
:10077000FC0EDBCF6FF0FD0EDBCF70F0FE0EDBCF9B
:1007800071F000016F510F0B030F070811E2030E08
:10079000146E6F0EE96E000EEA6EEF500F0B14240C
:1007A0000F0BF36EF46EF00EEF14F310EF6EF450C7
:1007B0006F51F00BE842E842E842E842030F0708B5
:1007C00019E2030E146E6F0EE96E000EEA6EEF5022
:1007D000F00BE842E842E842E84214240F0BF36EC3
:1007E000F46EF346F346F346F3460F0EEF14F310A0
:1007F000EF6EF45070510F0B030F070812E2030E57
:10080000146E6F0EE96E000EEA6EEE52EF500F0B93
:1008100014240F0BF36EF46EF00EEF14F310EF6E62
:10082000F4507051F00BE842E842E842E842030F0E
:1008300007081AE2030E146E6F0EE96E000EEA6EE0
:10084000EE52EF50F00BE842E842E842E84214244E
:100850000F0BF36EF46EF346F346F346F3460F0EBA
:10086000EF14F310EF6EF45071510F0B030F0708E4
:1008700013E2030E146E6F0EE96E000EEA6EEE5276
:10088000EE52EF500F0B14240F0BF36EF46EF00EBC
:10089000EF14F310EF6EF4507151F00BE842E842A0
:1008A000E842E842030F07081BE2030E146E6F0EC6
:1008B000E96E000EEA6EEE52EE52EF50F00BE84297
:1008C000E842E842E84214240F0BF36EF46EF3465C
:1008D000F346F346F3460F0EEF14F310EF6EF450A9
:1008E000FC0E6FC0DBFFFD0E70C0DBFFFE0E71C0A3
:1008F000DBFFFC0EDBCF14F0FD0EDBCF15F0FE0EA0
:10090000DBCF16F014C007F015C008F016C009F0D0
:10091000030EE15C03E200D0E16AE552E16EE552CC
:10092000E7CFD9FF1200D9CFE6FFE1CFD9FFFD0E07
:10093000DBCF6AF0FE0EDBCF6BF000016B510F0BCB
:10094000E66EA7EC09F0E55200016A51F00BE842AF
:10095000E842E842E842E66E6BEC0AF0E55200013C
:100960006A510F0BE66E2FEC0BF0E552E552E7CF24
:10097000D9FF1200D9CFE6FFE1CFD9FFFC0EDBCFC4
:100980006FF0FD0EDBCF70F0FE0EDBCF71F0D950B3
:10099000FC0FE96EFF0EDA20EA6E000EEE5C000E30
:1009A000EE58010EEF5804E2E668FDD8E55206D095
:1009B000000171510F0BE66EF6D8E552D950FC0FCD
:1009C000E96EFF0EDA20EA6E000EEE5C100EEE58B5
:1009D000000EEF5804E2E668AAD9E5520AD00001F9
:1009E0007051F00BE842E842E842E842E66E9FD9D7
:1009F000E552D950FC0FE96EFF0EDA20EA6E000EC8
:100A0000EE5C010EEE58000EEF5804E2E66853DA91
:100A1000E55206D0000170510F0BE66E4CDAE5523C
:100A200000016F51F00BE842E842E842E842E66E0E
:100A300006DBE55200016F510F0BE66EC4DBE55299
:100A4000E552E7CFD9FF1200D9CFE6FFE1CFD9FFBA
:100A50006B8C050EF36EFE0EDBCFF4FFF350F45CEF
:100A600004E36B8A7D8A7D8C17D0020EF36EFE0E36
:100A7000DBCFF4FFF350F45C04E36B9A7D8A7D8C4A
:100A80000BD0010EF36EFE0EDBCFF4FFF350F45CDF
:100A900003E36B9A7D9A7D8CE552E7CFD9FF120074
:100AA000D9CFE6FFE1CFD9FFBE80030EF36EFE0E75
:100AB000DBCFF4FFF350F45C03E37880BB80BB82B0
:100AC000FE0EDB50020803E17890BB80BB82FE0E75
:100AD000DB0403E17890BB90BB82E552E7CFD9FFFE
:100AE000120000017951E66EE66AB3DDE552E55287
:100AF00007C06FF008C070F009C071F000016F51BD
:100B0000F00BE842E842E842E842E66EA7EC09F062
:100B1000E55200016F510F0BE66E6BEC0AF0E552E7
:100B200000016F510F0BE66E84EC0CF0E5520001F2
:100B30007A51E66EE66A8DDDE552E55207C06FF048
:100B400008C070F009C071F000016F51F00BE8426D
:100B5000E842E842E842E66EAED9E55200016F5144
:100B60000F0BE66E6CDAE55200017B51E66EE66A29
:100B700070DDE552E55207C06FF008C070F009C0A3
:100B800071F000016F51F00BE842E842E842E842A0
:100B9000E66E09D8E55200016F510F0BE66EC7D81B
:100BA000E552748C1200D9CFE6FFE1CFD9FFFE0EDB
:100BB000DB50FF0A01E1B0D0E60A01E1A5D00C0A42
:100BC00001E19AD0040A01E18FD01E0A01E184D02C
:100BD000010A01E179D0020A6FE0060A65E0030A22
:100BE0005BE0010A51E00F0A47E0010A3DE0030A19
:100BF00033E0010A29E0070A1FE0010A15E0030AB1
:100C00000BE0010A01E08FD0BD86BD886E88748834
:100C10006E867A867A9887D0BD96BD886E887498DD
:100C20006E967A967A987FD0BD86BD886E987488C5
:100C30006E867A967A8877D0BD86BD886E887488ED
:100C40006E967A967A886FD0BD96BD886E887498B5
:100C50006E967A867A8867D0BD86BD986E887488CD
:100C60006E967A867A885FD0BD86BD986E887488C5
:100C70006E867A867A8857D0BD86BD886E887498CD
:100C80006E967A967A984FD0BD86BD886E887488A5
:100C90006E867A867A8847D0BD86BD886E887488CD
:100CA0006E967A867A883FD0BD86BD886E887498A5
:100CB0006E867A867A8837D0BD86BD986E9874889D
:100CC0006E867A867A982FD0BD86BD986E98748885
:100CD0006E867A867A8827D0BD86BD986E9874987D
:100CE0006E867A867A881FD0BD96BD886E88749885
:100CF0006E867A867A8817D0BD96BD986E9874886D
:100D00006E867A867A980FD0BD86BD886E98749864
:100D10006E867A867A8807D0BD96BD986E9874984C
:100D20006E967A967A98E552E7CFD9FF1200D9CF1E
:100D3000E6FFE1CFD9FFFE0EDB50FF0A01E1B0D0A4
:100D4000E60A01E1A5D00C0A01E19AD0040A01E10A
:100D50008FD01E0A01E184D0010A01E179D0020A94
:100D60006FE0060A65E0030A5BE0010A51E00F0A42
:100D700047E0010A3DE0030A33E0010A29E0070ADF
:100D80001FE0010A15E0030A0BE0010A01E08FD021
:100D9000BD8ABD8C6E8C748A6E8A7A8A7A9C87D062
:100DA000BD9ABD8C6E8C749A6E9A7A9A7A9C7FD01A
:100DB000BD8ABD8C6E9C748A6E8A7A9A7A8C77D042
:100DC000BD8ABD8C6E8C748A6E9A7A9A7A8C6FD03A
:100DD000BD9ABD8C6E8C749A6E9A7A8A7A8C67D022
:100DE000BD8ABD9C6E8C748A6E9A7A8A7A8C5FD02A
:100DF000BD8ABD9C6E8C748A6E8A7A8A7A8C57D032
:100E0000BD8ABD8C6E8C749A6E9A7A9A7A9C4FD0F9
:100E1000BD8ABD8C6E8C748A6E8A7A8A7A8C47D031
:100E2000BD8ABD8C6E8C748A6E9A7A8A7A8C3FD019
:100E3000BD8ABD8C6E8C749A6E8A7A8A7A8C37D011
:100E4000BD8ABD9C6E9C748A6E8A7A8A7A9C2FD0E9
:100E5000BD8ABD9C6E9C748A6E8A7A8A7A8C27D0F1
:100E6000BD8ABD9C6E9C749A6E8A7A8A7A8C1FD0D9
:100E7000BD9ABD8C6E8C749A6E8A7A8A7A8C17D0E1
:100E8000BD9ABD9C6E9C748A6E8A7A8A7A9C0FD0B9
:100E9000BD8ABD8C6E9C749A6E8A7A8A7A8C07D0D1
:100EA000BD9ABD9C6E9C749A6E9A7A9A7A9CE55211
:100EB000E7CFD9FF1200D9CFE6FFE1CFD9FFFE0E71
:100EC000DB50FF0A01E1B0D0E60A01E1A5D00C0A2F
:100ED00001E19AD0040A01E18FD01E0A01E184D019
:100EE000010A01E179D0020A6FE0060A65E0030A0F
:100EF0005BE0010A51E00F0A47E0010A3DE0030A06
:100F000033E0010A29E0070A1FE0010A15E0030A9D
:100F10000BE0010A01E08FD0BD8EBC866D86748E19
:100F20006E8E7A8E799687D0BD9EBC866D86749EB5
:100F30006E9E7A9E79967FD0BD8EBC866D96748E9D
:100F40006E8E7A9E798677D0BD8EBC866D86748EC5
:100F50006E9E7A9E79866FD0BD9EBC866D86749E8D
:100F60006E9E7A8E798667D0BD8EBC966D86748EA5
:100F70006E9E7A8E79865FD0BD8EBC966D86748E9D
:100F80006E8E7A8E798657D0BD8EBC866D86749EA5
:100F90006E9E7A9E79964FD0BD8EBC866D86748E7D
:100FA0006E8E7A8E798647D0BD8EBC866D86748EA5
:100FB0006E9E7A8E79863FD0BD8EBC866D86749E7D
:100FC0006E8E7A8E798637D0BD8EBC966D96748E75
:100FD0006E8E7A8E79962FD0BD8EBC966D96748E5D
:100FE0006E8E7A8E798627D0BD8EBC966D96749E55
:100FF0006E8E7A8E79861FD0BD9EBC866D86749E5D
:101000006E8E7A8E798617D0BD9EBC966D96748E44
:101010006E8E7A8E79960FD0BD8EBC866D96749E3C
:101020006E8E7A8E798607D0BD9EBC966D96749E24
:101030006E9E7A9E7996E552E7CFD9FF1200D9CFFE
:10104000E6FFE1CFD9FFFE0EDB50FF0A01E1B0D091
:10105000E60A01E1A5D00C0A01E19AD0040A01E1F7
:101060008FD01E0A01E184D0010A01E179D0020A81
:101070006FE0060A65E0030A5BE0010A51E00F0A2F
:1010800047E0010A3DE0030A33E0010A29E0070ACC
:101090001FE0010A15E0030A0BE0010A01E08FD00E
:1010A000BC84BC826D8273846D847984799287D08C
:1010B000BC94BC826D8273946D94799479927FD044
:1010C000BC84BC826D9273846D847994798277D06C
:1010D000BC84BC826D8273846D94799479826FD064
:1010E000BC94BC826D8273946D947984798267D04C
:1010F000BC84BC926D8273846D94798479825FD054
:10110000BC84BC926D8273846D847984798257D05B
:10111000BC84BC826D8273946D94799479924FD023
:10112000BC84BC826D8273846D847984798247D05B
:10113000BC84BC826D8273846D94798479823FD043
:10114000BC84BC826D8273946D847984798237D03B
:10115000BC84BC926D9273846D84798479922FD013
:10116000BC84BC926D9273846D847984798227D01B
:10117000BC84BC926D9273946D84798479821FD003
:10118000BC94BC826D8273946D847984798217D00B
:10119000BC94BC926D9273846D84798479920FD0E3
:1011A000BC84BC826D9273946D847984798207D0FB
:1011B000BC94BC926D9273946D9479947992E5523B
:1011C000E7CFD9FF1200D9CFE6FFE1CFD9FFFE0E5E
:1011D000DB50FF0A01E1B0D0E60A01E1A5D00C0A1C
:1011E00001E19AD0040A01E18FD01E0A01E184D006
:1011F000010A01E179D0020A6FE0060A65E0030AFC
:101200005BE0010A51E00F0A47E0010A3DE0030AF2
:1012100033E0010A29E0070A1FE0010A15E0030A8A
:101220000BE0010A01E08FD0BC80BB8E6C8E738016
:101230006D807980789E87D0BC90BB8E6C8E7390C9
:101240006D907990789E7FD0BC80BB8E6C9E7380B1
:101250006D807990788E77D0BC80BB8E6C8E7380D9
:101260006D907990788E6FD0BC90BB8E6C8E7390A1
:101270006D907980788E67D0BC80BB9E6C8E7380B9
:101280006D907980788E5FD0BC80BB9E6C8E7380B1
:101290006D807980788E57D0BC80BB8E6C8E7390B9
:1012A0006D907990789E4FD0BC80BB8E6C8E738091
:1012B0006D807980788E47D0BC80BB8E6C8E7380B9
:1012C0006D907980788E3FD0BC80BB8E6C8E739091
:1012D0006D807980788E37D0BC80BB9E6C9E738089
:1012E0006D807980789E2FD0BC80BB9E6C9E738071
:1012F0006D807980788E27D0BC80BB9E6C9E739069
:101300006D807980788E1FD0BC90BB8E6C8E739070
:101310006D807980788E17D0BC90BB9E6C9E738058
:101320006D807980789E0FD0BC80BB8E6C9E739050
:101330006D807980788E07D0BC90BB9E6C9E739038
:101340006D907990789EE552E7CFD9FF1200D9CF02
:10135000E6FFE1CFD9FFFE0EDB50FF0A01E1B0D07E
:10136000E60A01E1A5D00C0A01E19AD0040A01E1E4
:101370008FD01E0A01E184D0010A01E179D0020A6E
:101380006FE0060A65E0030A5BE0010A51E00F0A1C
:1013900047E0010A3DE0030A33E0010A29E0070AB9
:1013A0001FE0010A15E0030A0BE0010A01E08FD0FB
:1013B000758275807B80BE827B826F826F9087D0C2
:1013C000759275807B80BE927B926F926F907FD07A
:1013D000758275807B90BE827B826F926F8077D0A2
:1013E000758275807B80BE827B926F926F806FD09A
:1013F000759275807B80BE927B926F826F8067D082
:10140000758275907B80BE827B926F826F805FD089
:10141000758275907B80BE827B826F826F8057D091
:10142000758275807B80BE927B926F926F904FD059
:10143000758275807B80BE827B826F826F8047D091
:10144000758275807B80BE827B926F826F803FD079
:10145000758275807B80BE927B826F826F8037D071
:10146000758275907B90BE827B826F826F902FD049
:10147000758275907B90BE827B826F826F8027D051
:10148000758275907B90BE927B826F826F801FD039
:10149000759275807B80BE927B826F826F8017D041
:1014A000759275907B90BE827B826F826F900FD019
:1014B000758275807B90BE927B826F826F8007D031
:1014C000759275907B90BE927B926F926F90E55271
:1014D000E7CFD9FF1200D9CFE6FFE1CFD9FFFE0E4B
:1014E000DB50FF0A01E1B0D0E60A01E1A5D00C0A09
:1014F00001E19AD0040A01E18FD01E0A01E184D0F3
:10150000010A01E179D0020A6FE0060A65E0030AE8
:101510005BE0010A51E00F0A47E0010A3DE0030ADF
:1015200033E0010A29E0070A1FE0010A15E0030A77
:101530000BE0010A01E08FD0728472867886BB844A
:1015400078846C846C9687D0729472867886BB940B
:1015500078946C946C967FD0728472867896BB84F3
:1015600078846C946C8677D0728472867886BB841B
:1015700078946C946C866FD0729472867886BB94E3
:1015800078946C846C8667D0728472967886BB84FB
:1015900078946C846C865FD0728472967886BB84F3
:1015A00078846C846C8657D0728472867886BB94FB
:1015B00078946C946C964FD0728472867886BB84D3
:1015C00078846C846C8647D0728472867886BB84FB
:1015D00078946C846C863FD0728472867886BB94D3
:1015E00078846C846C8637D0728472967896BB84CB
:1015F00078846C846C962FD0728472967896BB84B3
:1016000078846C846C8627D0728472967896BB94AA
:1016100078846C846C861FD0729472867886BB94B2
:1016200078846C846C8617D0729472967896BB849A
:1016300078846C846C960FD0728472867896BB9492
:1016400078846C846C8607D0729472967896BB947A
:1016500078946C946C96E552E7CFD9FF1200D9CFFD
:10166000E6FFE1CFD9FFFE0EDB50FF0A01E1B0D06B
:10167000E60A01E1A5D00C0A01E19AD0040A01E1D1
:101680008FD01E0A01E184D0010A01E179D0020A5B
:101690006FE0060A65E0030A5BE0010A51E00F0A09
:1016A00047E0010A3DE0030A33E0010A29E0070AA6
:1016B0001FE0010A15E0030A0BE0010A01E08FD0E8
:1016C0007288728A788ABB8878886C886C9A87D08E
:1016D0007298728A788ABB9878986C986C9A7FD046
:1016E0007288728A789ABB8878886C986C8A77D06E
:1016F0007288728A788ABB8878986C986C8A6FD066
:101700007298728A788ABB9878986C886C8A67D04D
:101710007288729A788ABB8878986C886C8A5FD055
:101720007288729A788ABB8878886C886C8A57D05D
:101730007288728A788ABB9878986C986C9A4FD025
:101740007288728A788ABB8878886C886C8A47D05D
:101750007288728A788ABB8878986C886C8A3FD045
:101760007288728A788ABB9878886C886C8A37D03D
:101770007288729A789ABB8878886C886C9A2FD015
:101780007288729A789ABB8878886C886C8A27D01D
:101790007288729A789ABB9878886C886C8A1FD005
:1017A0007298728A788ABB9878886C886C8A17D00D
:1017B0007298729A789ABB8878886C886C9A0FD0E5
:1017C0007288728A789ABB9878886C886C8A07D0FD
:1017D0007298729A789ABB9878986C986C9AE5523D
:1017E000E7CFD9FF1200D9CFE6FFE1CFD9FFFE0E38
:1017F000DB500001D8807C553CE2FE0EDB50130A22
:1018000037E0010A34E0030A31E0010A2EE01F0A42
:101810002BE0010A28E0030A25E0010A22E0070A7A
:101820001FE0010A1CE0030A19E0010A16E00F0A92
:1018300013E0010A10E0030A0DE0010A0AE0070ABA
:1018400007E0010A04E0030A01E013D07A926E92E5
:10185000749274906E907A90BD90BC9E799E6D9EAD
:10186000739E739C6D9C799CBC9CBC9A799A6D9A72
:10187000739AFE0EDB50D8807C553FE3FE0EDB50A2
:10188000010A3AE0030A37E0010A34E0070A31E0CE
:10189000010A2EE0030A2BE0010A28E00F0A25E0E6
:1018A000010A22E0030A1FE0010A1CE0070A19E00E
:1018B000010A16E0030A13E0010A10E01F0A0DE016
:1018C000010A0AE0030A07E0010A04E0070A01E04E
:1018D00014D0738A6D8A798ABC8ABC8C798C6D8CA1
:1018E000738C738E6D8E798EBC8EBD807A806E8087
:1018F000748074826E827A82BD82FE0EDBCF7CF0B1
:10190000E552E7CFD9FF1200D9CFE6FFE1CFD9FFEB
:101910006F9A6F9E7B9E7B9ABE947B946F94759416
:10192000759A759EFE0EDB501CE0010A19E0030A51
:1019300016E0010A13E0070A10E0010A0DE0030AAD
:101940000AE0010A07E00F0A04E0010A01E00AD0F8
:101950006F8E7B8E7B8ABE847B846F847584758A50
:10196000758E6F8AE552E7CFD9FF1200D28AD288EE
:10197000D286D284D282D280D28CAA9EAA9CAA96E7
:10198000AA84AA92AA90A968B668B768A70EB86E8A
:10199000B96A700EBA6EA886A884A882A880A88E9C
:1019A0001200D28AD288D286D284D292D290D29C8D
:1019B000AA9EAA9CAA96AA84AA92AA90A968B66886
:1019C000B768A70EB86EB96A700EBA6EA886A884FA
:1019D000A882A880A88E12006B887D88718877887D
:1019E0006B8C6B8A7D8A7D8CBE807880BB82BB804D
:1019F000BB8A728C6C8C788CBB8C6D887388738A74
:101A00006D8A798ABC8ABC8C798C6D8C738C738E50
:101A10006D8E798EBC8EBD807A806E80748074826B
:101A20006E827A82BD8274846E847A8474866F8AB0
:101A30006F8E7B8E7B8ABE847B846F847584758A6F
:101A4000758EBD86BD886E8874886E867A867A8823
:101A5000BD8ABD8C6E8C748A6E8A7A8A7A8C748CFC
:101A6000BD8EBC866D86748E6E8E7A8E7986BC84B1
:101A7000BC826D8273846D84798479827382BC8028
:101A8000BB8E6C8E73806D807980788E7582758048
:101A90007B80BE827B826F826F8072847286788642
:101AA000BB8478846C846C86BB867288728A788AE0
:101AB000BB8878886C886C8A12006B98BB9A7D987A
:101AC000719877986B9C6B9A7D9A7D9CBE9078906C
:101AD000BB92BB90729C6C9C789CBB9C6D987398DD
:101AE000739A6D9A799ABC9ABC9C799C6D9C739CF4
:101AF000739E6D9E799EBC9EBD907A906E90749000
:101B000074926E927A92BD9274946E947A94749652
:101B10006F9A6F9E7B9E7B9ABE947B946F94759414
:101B2000759A759EBD96BD986E9874986E967A96C5
:101B30007A98BD9ABD9C6E9C749A6E9A7A9A7A9C99
:101B4000749CBD9EBC966D96749E6E9E7A9E799690
:101B5000BC94BC926D9273946D94799479927392C3
:101B6000BC90BB9E6C9E73906D907990789E7592A0
:101B700075907B90BE927B926F926F9072947296EA
:101B80007896BB9478946C946C96BB967298729A83
:101B9000789ABB9878986C986C9A1200D9CFE6FF27
:101BA000E1CFD9FF040EE126020EDB6A030EDB6AE9
:101BB000020EDBCF14F0030EDBCF15F0980E145C91
:101BC0003A0E155806E2020EDB2A030E01E3DB2A69
:101BD000EFD7040EE15C02E2E16AE552E16EE55204
:101BE000E7CFD9FF1200E80EB36EB268B182B184BC
:101BF000B180A192A0820300A092B1901200E00EE9
:101C0000B36EB268B182B184B180A192A0820300A8
:061C1000A092B190120049
:0A1C1600060EF66E000EF76E000ECB
:101C2000F86E00010900F5508F6F0900F550906FB4
:101C300003E18F6701D03DD00900F5508A6F09009C
:101C4000F5508B6F0900F5508C6F09000900F550B5
:101C5000E96E0900F550EA6E090009000900F55027
:101C60008D6F0900F5508E6F09000900F6CF91F0D5
:101C7000F7CF92F0F8CF93F08AC0F6FF8BC0F7FF52
:101C80008CC0F8FF00018D5302E18E5307E009007C
:101C9000F550EE6E8D07F8E28E07F9D791C0F6FF8A
:101CA00092C0F7FF93C0F8FF00018F07000E905B12
:041CB000BFD7120088
:0C1CB40008C012F008500D02F4CF07F039
:101CC000F3CF06F009500E02F4CF09F0F3CF08F07D
:101CD0000D02F3500726F4500822E86A0922125038
:101CE0000E02F3500726F4500822E86A0922000C7D
:101CF000056A046A100EE76ED89008360936043675
:101D000005360D50045C0E50055805E30D50045E79
:0C1D10000E50055A082AE72EF0D71200EA
:041D1C0017EE00F0CE
:101D200027EE00F0F86A019C0BEC0EF0A3EC0EF02D
:081D300007EC00F0FBD71200E4
:081D380000EE00F00F0EEE6A50
:061D4000EA62FDD712006B
:021D4600120089
:017FF8008008
:017FF900F493
:017FFA000086
:017FFB00F88D
:017FFD00F192
:00000001FF
