:0600000000308A000C280C
:10000800FF000308FA000A08FB000A128A11582F99
:10001800E501E601E701E801E901EA01EB01EC018C
:10002800ED01EE01EF010A128A15862FF400782BF4
:10003800831203171B129B11951118121512121215
:1000480092116128151612160800181695151B1618
:10005800121692150800181615161B161216921568
:100068000800151612161B169B15080018161516EB
:100078001B169B15921508001B16151618169515B4
:100088009B159215080015161216921508001B16D6
:100098009B159515181615161216921508001B169D
:1000A8009B15181615161216921508009B1595150E
:1000B800181615161216921508007308003A031937
:1000C8005A28013A03192628033A03192928013A1C
:1000D80003192F28073A03193528013A03193A2832
:1000E800033A03194028013A031947280F3A03191C
:1000F8004B28013A031D08005328831203171B13CA
:100108009B1295129812151312139212C6281517DE
:1001180012170800981695161B1712179216080042
:10012800981615171B17121792160800151712178D
:100138001B179B160800981615171B179B16921667
:1001480008001B171517981695169B169216080087
:1001580015171217921608001B179B169516981656
:1001680015171217921608001B179B1698161517C5
:100178001217921608009B1695169816151712173F
:10018800921608007308003A0319BF28013A0319A8
:100198008B28033A03198E28013A03199428073A41
:1001A80003199A28013A03199F28033A0319A52825
:1001B800013A0319AC280F3A0319B028013A031D74
:1001C8000800B828831603171A1383129B13951374
:1001D8009813831614131113831292134529831647
:1001E8001417111708009817951783161A1711175F
:1001F8008312921708009817831614171A171117E5
:100208008312921708008316141711171A178312EE
:100218009B1708009817831614171A1783129B1731
:100228009217080083161A17141783129817951730
:100238009B17921708008316141711178312921729
:10024800080083161A1783129B1795179817831699
:100258001417111783129217080083161A1783129E
:100268009B179817831614171117831292170800F3
:100278009B1795179817831614171117831292173F
:1002880008007308003A03193C29013A0319F328B6
:10029800033A0319F728013A0319FF28073A031903
:1002A8000729013A03190E29033A03191629013AB5
:1002B80003191F290F3A03192529013A031D0800BC
:1002C8003129831603179A1283121A111411171160
:1002D80083169412911283121111C429831694164D
:1002E800911608001715141583169A16911683127D
:1002F800111508001715831694169A16911683126D
:10030800111508008316941691169A1683121A1559
:1003180008001715831694169A1683121A151115C4
:10032800080083169A1694168312171514151A15B1
:1003380011150800831694169116831211150800DA
:1003480083169A1683121A15141517158316941600
:10035800911683121115080083169A1683121A151E
:1003680017158316941691168312111508001A157D
:100378001415171583169416911683121115080073
:100388007308003A0319BB29013A03197229033A81
:1003980003197629013A03197E29073A0319862990
:1003A800013A03198D29033A03199529013A0319CA
:1003B8009E290F3A0319A429013A031D0800B02900
:1003C800831603179A111A12141217129411911105
:1003D8001112292A941591150800171614169A1542
:1003E800911511160800171694159A1591151116DE
:1003F8000800941591159A151A16080017169415E1
:100408009A151A16111608009A1594151716141627
:100418001A161116080094159115111608009A1548
:100428001A161416171694159115111608009A1510
:100438001A16171694159115111608001A1614167F
:10044800171694159115111608007308003A031928
:10045800222A013A0319EE29033A0319F129013A2C
:100468000319F729073A0319FD29013A0319022A42
:10047800033A0319082A013A03190F2A0F3A0319F4
:10048800132A013A031D08001B2A831603171310A9
:100498009310991090101910161096108E2A19148E
:1004A80016140800901499141314161496140800BE
:1004B8009014191413141614961408001914161409
:1004C8001314931408009014191413149314961405
:1004D800080013141914901499149314961408000E
:1004E80019141614961408001314931499149014DC
:1004F800191416149614080013149314901419144C
:1005080016149614080093149914901419141614B8
:10051800961408007308003A0319872A013A031948
:10052800532A033A0319562A013A03195C2A073A4F
:100538000319622A013A0319672A033A03196D2A33
:10054800013A0319742A0F3A0319782A013A031D4C
:100558000800802A8312031793111311191110111F
:10056800991196111611F32A991596150800101568
:100578001915931596151615080010159915931544
:100588009615161508009915961593151315080054
:100598001015991593151315161508009315991527
:1005A8001015191513151615080099159615161511
:1005B8000800931513151915101599159615161584
:1005C800080093151315101599159615161508009A
:1005D8001315191510159915961516150800730891
:1005E800003A0319EC2A013A0319B82A033A031905
:1005F800BB2A013A0319C12A073A0319C72A013A43
:100608000319CC2A033A0319D22A013A0319D92A21
:100618000F3A0319DD2A013A031D0800E52A83125F
:100628000317931213121912101299129612161216
:10063800582B991696160800101619169316961622
:100648001616080010169916931696161616080010
:1006580099169616931613160800101699169316DF
:10066800131616160800931699161016191613164F
:1006780016160800991696161616080093161316DD
:1006880019161016991696161616080093161316AC
:10069800101699169616161608001316191610161F
:1006A80099169616161608007308003A0319512B66
:1006B800013A03191D2B033A0319202B013A031998
:1006C800262B073A03192C2B013A0319312B033A2D
:1006D8000319372B013A03193E2B0F3A0319422B02
:1006E800013A031D08004A2B7408013A03191C2813
:1006F800033A03198128013A0319E628073A03192E
:100708006529013A0319E429033A0319492A013AE8
:100718000319AE2A0F3A031D0800132BF000EC0151
:10072800EE01992BF630F007EC0A0A307002031834
:10073800962B7008EE0008007D0892230A307D028F
:10074800031CA82B6C08A92B0A30F30001301A20CF
:10075800831203136E08F30002301A208312031366
:100768006D0892236C08F30003301A2083120313D8
:100778006E08F30004301A20831203136B080A1260
:100788008A157C2EF000C62D831603171810151035
:100798001B10121092109B1095109810831297132B
:1007A80094139A13911312101B1015101810981007
:1007B80095109B10921008000317921483161810B6
:1007C80015101B10121092109B1095109810831280
:1007D800971394139A13911312101B1015101810D5
:1007E800981095109B10080003179B1492148316F9
:1007F800181015101B10121092109B1095109810BD
:100808008312971394139A13911312101B10151037
:100818001810981095100800031795149B1492143B
:100828008316181015101B10121092109B1095109B
:1008380098108312971394139A13911312101B1084
:1008480015101810981008000317981495149B1485
:1008580092148316181015101B10121092109B106A
:10086800951098108312971394139A1391131210DA
:100878001B10151018100800031718149814951455
:100888009B1492148316181015101B101210921036
:100898009B10951098108312971394139A13911321
:1008A80012101B10151008000317151418149814AB
:1008B80095149B1492148316181015101B101210FF
:1008C80092109B10951098108312971394139A13F3
:1008D800911312101B10080003171B141514181479
:1008E800981495149B1492148316181015101B1045
:1008F800121092109B10951098108312971394134E
:100908009A13911312100800031712141B141514CC
:100918001814981495149B14921483161810151013
:100928001B10121092109B10951098108312971399
:1009380094139A13911308000317911712141B1498
:1009480015141814981495149B14921483161810DF
:1009580015101B10121092109B10951098108312EE
:10096800971394139A13080003179A1791171214E0
:100978001B1415141814981495149B1492148316A8
:10098800181015101B10121092109B10951098102B
:100998008312971394130800031794179A17911743
:1009A80012141B1415141814981495149B149214EB
:1009B8008316181015101B10121092109B1095100A
:1009C80098108312971308000317971794179A170C
:1009D800911712141B1415141814981495149B14B9
:1009E80092148316181015101B10121092109B10D9
:1009F80095109810080083160317981483129717F8
:100A080094179A17911712141B1415141814981484
:100A180095149B1492148316181015101B1012109D
:100A280092109B10951008008316031795149814BC
:100A38008312971794179A17911712141B141514E9
:100A48001814981495149B149214831618101510E2
:100A58001B10121092109B100800831603179B148A
:100A6800951498148312971794179A1791171214BC
:100A78001B1415141814981495149B1492148316A7
:100A8800181015101B101210921008008316031767
:100A980092149B14951498148312971794179A1705
:100AA800911712141B1415141814981495149B14E8
:100AB80092148316181015101B10121008008316B4
:100AC8000317121492149B149514981483129717F1
:100AD80094179A17911712141B14151418149814B4
:100AE80095149B1492148316181015101B100800E7
:100AF800831603171B14121492149B14951498143C
:100B08008312971794179A17911712141B14151418
:100B18001814981495149B14921483161810151011
:100B280008008316031715141B14121492149B142F
:100B3800951498148312971794179A1791171214EB
:100B48001B1415141814981495149B1492148316D6
:100B58001810080083160317181415141B14121400
:100B680092149B14951498148312971794179A1734
:100B7800911712141B1415141814981495149B1417
:100B8800921408007008003A0319C82B013A031997
:100B9800E02B033A0319F82B013A0319102C073AF2
:100BA8000319282C013A0319402C033A0319582C2D
:100BB800013A0319702C0F3A0319882C013A0319CA
:100BC800A02C033A0319B82C013A0319D02C073A80
:100BD8000319E82C013A0319FF2C033A0319182DBD
:100BE800013A0319312D1F3A03194A2D013A031905
:100BF800632D033A03197C2D013A0319952D073A01
:100C0800031D0800AE2DF701F801731C112E75089D
:100C1800F7070318F80A7608F8070310F50DF60D1C
:100C28000310F40CF30C74087304031D092E7808E0
:100C3800F4007708F30008008030F0003E30F1003F
:100C48000130F002031CF103700A0319710A031939
:100C58000800242E03131F1120269F149F18322EDC
:100C6800831683121E08EA0083161E088312E90001
:100C78001E30F500F6016A08F4006908F30007263B
:100C88007408EA007308E9000A30F500F6016A08FA
:100C9800F4006908F30099267408EA007308E9006B
:100CA8006A08F1006908F000C3260A128A11963012
:100CB800F500F601831203136A08F4006908F300CB
:100CC80099267408EA007308E900C62B03131F1558
:100CD800202620269F149F186F2E831683121E0825
:100CE800E80083161E088312E7002430F500F60199
:100CF8006708D13EF30068080318013EFE3EF40081
:100D080007267408F4007308F3000A30F500F601AA
:100D180099267408E8007308E70003179015031371
:100D28006808F1006708F000192FF801F901760842
:100D380075040319BE2EF701F70A0310F61BA82E37
:100D4800F50DF60DA02E0310F80DF90D76087402B6
:100D5800031DB02E75087302031CBA2E7508F30222
:100D68007608031CF403F40278140310F60CF50C4F
:100D7800F70BA72E7908F4007808F3000800E8308C
:100D8800F5000330F6007108F4007008F3009926A6
:100D98007308F200F30002301A201830F500FC3016
:100DA800F6007208F300F40107267308F007031829
:100DB800F10A7408F1076430F500F6017108F400CF
:100DC8007008F30099267308F200F30003301A2024
:100DD8009C30F500FF30F6007208F300F401072696
:100DE8007308F0070318F10A7408F1070A30F500D0
:100DF800F6017108F4007008F30099267308F200F0
:100E0800F30004301A20F630F500FF30F6007208BF
:100E1800F300F40107267308F0070318F10A7408B1
:100E2800F1077008F30005301A286430F500F60160
:100E38007108F4007008F30099267308F2009C30DA
:100E4800F500FF30F6007208F300F4010726730876
:100E5800F0070318F10A7408F1077208F300063066
:100E68001A200A30F500F6017108F4007008F30042
:100E780099267308F200F30007301A20F630F500BF
:100E8800FF30F6007208F300F40107267308F00734
:100E98000318F10A7408F1077008F30008301A20E3
:100EA8008316031717150800831203130C1C772FDA
:100EB80083160C1C772F83126F140C1080308F0050
:100EC800EB0A3D306B02031C772FED0AEB013D3036
:100ED8006D02031C772FFD0AED010D307D02031C06
:100EE800772FFD01FD0A83120B188B1D862FE50154
:100EF800E601061B812FE501E50A861B852FE60121
:100F0800E60A0B107B088A007A088300FF0E7F0E22
:020F18000900CE
:101CC000F3000830F400F5017308F6000730031044
:101CD000F60CFF3E0310031D682E750D7604F5000B
:101CE0000310F30D72087502031C782E7208F502BA
:101CF000F40B642E75080800F000F1000B30700240
:101D0000031C0A2F0A30F20070086026F1000A2F27
:101D10008316031716169615161513151915101593
:101D2000991519161316931508008316031796159F
:101D300016121611131119111011991119121312EB
:101D40009311080083160317161596151612131112
:101D500019111011991119121312931108008316F9
:101D6000031713151615961516121911101199113E
:101D7000191213129311080083160317191513155E
:101D80001615961516121011991119121312931196
:101D90000800831603171015191513151615961537
:101DA00016129911191213129311080083160317B2
:101DB00099151015191513151615961516121912D1
:101DC000131293110800831603171916991510158D
:101DD00019151315161596151612131293110800DE
:101DE00083160317131619169915101519151315BF
:101DF000161596151612931108008316031716165A
:101E0000131619169915101519151315161596157B
:101E1000931108007108003A0319882E013A03193A
:101E2000952E033A0319A22E013A0319AF2E073A51
:101E30000319BC2E013A0319C92E033A0319D62EF1
:101E4000013A0319E32E0F3A0319F02E013A031D4C
:101E50000800FD2E03179001910192019301940156
:101E6000950196019701980199019A019B018316AA
:101E700090019101920193019401950196019701BE
:101E8000980199019A019B019016831290160800FF
:101E90000130031788003E309C0084309D009E0175
:101EA0009E0383169C019C03FC309D009E019E03B3
:101EB000DB30831287002A270F300313900083162C
:101EC00011149114813083129F0083161F169F16E0
:101ED0001F138312EB01ED010C30FD00A001A00ADD
:101EE0000317181783160313061086170617831295
:101EF000061483161617961783120C1083160C14EB
:101F000083120B108B150B178B17080048270A122A
:101F10008A15200BD92F03171815181703136F1CD8
:101F2000992F0A128A11A0230A128A158312031309
:101F30006F10650BA42F0230A000E5012A270A12BA
:101F40008A1120260A128A150313660B892FED0ABF
:101F50006D083C3A031DB42FED01FD0A0D307D02E2
:101F6000031CB42FFD01FD0AE6016F140A128A1149
:101F700020260A128A15892F031715150A128A11AD
:101F80002E260A128A1583120313650BD02F0330F5
:101F9000A000E5012A270A128A1120260A128A15B2
:101FA0000313660BD92FE6010A128A1120260A12A2
:101FB0008A152008023A031DFB2FBC2F03171B159F
:101FC0000A128A116A260A128A1583120313650BF4
:101FD000F22FA001A00AE5012A270A128A11202661
:101FE0000A128A150313660BFB2FE6010A128A11E7
:101FF00020260A128A152008033A031D892FDE2F96
:02400E00D430AC
:00000001FF
